{
  "contractName": "Main",
  "abi": [
    {
      "inputs": [],
      "payable": false,
      "stateMutability": "nonpayable",
      "type": "constructor"
    },
    {
      "anonymous": false,
      "inputs": [
        {
          "indexed": false,
          "internalType": "uint256",
          "name": "panelId",
          "type": "uint256"
        },
        {
          "indexed": false,
          "internalType": "uint256",
          "name": "valueReceived",
          "type": "uint256"
        },
        {
          "indexed": false,
          "internalType": "address",
          "name": "payerAddress",
          "type": "address"
        }
      ],
      "name": "DepositMade",
      "type": "event"
    },
    {
      "anonymous": false,
      "inputs": [
        {
          "indexed": false,
          "internalType": "uint256",
          "name": "panelId",
          "type": "uint256"
        },
        {
          "indexed": false,
          "internalType": "address",
          "name": "ownerAddress",
          "type": "address"
        },
        {
          "indexed": false,
          "internalType": "uint256",
          "name": "ownerShare",
          "type": "uint256"
        },
        {
          "indexed": false,
          "internalType": "address",
          "name": "recyclerAddress",
          "type": "address"
        },
        {
          "indexed": false,
          "internalType": "uint256",
          "name": "recyclerShare",
          "type": "uint256"
        },
        {
          "indexed": false,
          "internalType": "address",
          "name": "manufacturerAddress",
          "type": "address"
        },
        {
          "indexed": false,
          "internalType": "uint256",
          "name": "manufacturerShare",
          "type": "uint256"
        }
      ],
      "name": "PanelClosed",
      "type": "event"
    },
    {
      "anonymous": false,
      "inputs": [
        {
          "indexed": false,
          "internalType": "uint256",
          "name": "panelId",
          "type": "uint256"
        },
        {
          "indexed": false,
          "internalType": "uint256",
          "name": "registrationNumber",
          "type": "uint256"
        },
        {
          "indexed": false,
          "internalType": "string",
          "name": "manufacturer",
          "type": "string"
        },
        {
          "indexed": false,
          "internalType": "address",
          "name": "manufacturerAddress",
          "type": "address"
        },
        {
          "indexed": false,
          "internalType": "address",
          "name": "ownerAddress",
          "type": "address"
        }
      ],
      "name": "PanelRegistered",
      "type": "event"
    },
    {
      "constant": true,
      "inputs": [
        {
          "internalType": "uint256",
          "name": "",
          "type": "uint256"
        }
      ],
      "name": "panels",
      "outputs": [
        {
          "internalType": "uint256",
          "name": "registrationNumber",
          "type": "uint256"
        },
        {
          "internalType": "uint16",
          "name": "monthsOfLife",
          "type": "uint16"
        },
        {
          "internalType": "uint16",
          "name": "pp10kForPanel",
          "type": "uint16"
        },
        {
          "internalType": "string",
          "name": "manufacturer",
          "type": "string"
        },
        {
          "internalType": "address payable",
          "name": "manufacturerAddress",
          "type": "address"
        },
        {
          "internalType": "address payable",
          "name": "ownerAddress",
          "type": "address"
        },
        {
          "internalType": "address payable",
          "name": "recyclerAddress",
          "type": "address"
        },
        {
          "internalType": "bool",
          "name": "isActive",
          "type": "bool"
        },
        {
          "internalType": "uint256",
          "name": "balance",
          "type": "uint256"
        },
        {
          "internalType": "uint256",
          "name": "recyclingCost",
          "type": "uint256"
        }
      ],
      "payable": false,
      "stateMutability": "view",
      "type": "function"
    },
    {
      "constant": true,
      "inputs": [
        {
          "internalType": "uint256",
          "name": "",
          "type": "uint256"
        }
      ],
      "name": "registrationToId",
      "outputs": [
        {
          "internalType": "uint256",
          "name": "",
          "type": "uint256"
        }
      ],
      "payable": false,
      "stateMutability": "view",
      "type": "function"
    },
    {
      "constant": false,
      "inputs": [
        {
          "internalType": "uint256",
          "name": "_registrationNumber",
          "type": "uint256"
        },
        {
          "internalType": "string",
          "name": "_manufacturer",
          "type": "string"
        },
        {
          "internalType": "address payable",
          "name": "_manufacturerAddress",
          "type": "address"
        },
        {
          "internalType": "address payable",
          "name": "_ownerAddress",
          "type": "address"
        }
      ],
      "name": "registerPanel",
      "outputs": [
        {
          "internalType": "uint256",
          "name": "",
          "type": "uint256"
        }
      ],
      "payable": false,
      "stateMutability": "nonpayable",
      "type": "function"
    },
    {
      "constant": false,
      "inputs": [
        {
          "internalType": "uint256",
          "name": "_panelId",
          "type": "uint256"
        }
      ],
      "name": "_increaseLifetime",
      "outputs": [],
      "payable": false,
      "stateMutability": "nonpayable",
      "type": "function"
    },
    {
      "constant": false,
      "inputs": [
        {
          "internalType": "uint256",
          "name": "_panelId",
          "type": "uint256"
        }
      ],
      "name": "deposit",
      "outputs": [],
      "payable": true,
      "stateMutability": "payable",
      "type": "function"
    },
    {
      "constant": false,
      "inputs": [
        {
          "internalType": "uint256",
          "name": "_panelId",
          "type": "uint256"
        }
      ],
      "name": "pay",
      "outputs": [],
      "payable": true,
      "stateMutability": "payable",
      "type": "function"
    },
    {
      "constant": false,
      "inputs": [
        {
          "internalType": "uint256",
          "name": "_panelId",
          "type": "uint256"
        },
        {
          "internalType": "uint256",
          "name": "_pp10kForPanel",
          "type": "uint256"
        }
      ],
      "name": "updatePanelShare",
      "outputs": [],
      "payable": false,
      "stateMutability": "nonpayable",
      "type": "function"
    },
    {
      "constant": false,
      "inputs": [
        {
          "internalType": "uint256",
          "name": "_panelId",
          "type": "uint256"
        },
        {
          "internalType": "address payable",
          "name": "_recyclerAddress",
          "type": "address"
        },
        {
          "internalType": "uint256",
          "name": "_recyclingCost",
          "type": "uint256"
        }
      ],
      "name": "setRecycler",
      "outputs": [],
      "payable": false,
      "stateMutability": "nonpayable",
      "type": "function"
    },
    {
      "constant": true,
      "inputs": [
        {
          "internalType": "uint256",
          "name": "_panelId",
          "type": "uint256"
        }
      ],
      "name": "calculateShares",
      "outputs": [
        {
          "internalType": "uint256",
          "name": "",
          "type": "uint256"
        },
        {
          "internalType": "uint256",
          "name": "",
          "type": "uint256"
        },
        {
          "internalType": "uint256",
          "name": "",
          "type": "uint256"
        }
      ],
      "payable": false,
      "stateMutability": "view",
      "type": "function"
    },
    {
      "constant": false,
      "inputs": [
        {
          "internalType": "uint256",
          "name": "_panelId",
          "type": "uint256"
        }
      ],
      "name": "close",
      "outputs": [],
      "payable": false,
      "stateMutability": "nonpayable",
      "type": "function"
    }
  ],
  "bytecode": "0x608060405234801561001057600080fd5b50336000806101000a81548173ffffffffffffffffffffffffffffffffffffffff021916908373ffffffffffffffffffffffffffffffffffffffff160217905550611378806100606000396000f3fe6080604052600436106100915760003560e01c8063612d659d11610059578063612d659d146102135780637f8ceece146102f7578063b6b55f2514610346578063c290d69114610374578063f40e4f6f146103a257610091565b80630aebeb4e146100965780633ec16194146100d157806346a7e4dd1461012e578063512560e9146101695780635bf11d8d146101ae575b600080fd5b3480156100a257600080fd5b506100cf600480360360208110156100b957600080fd5b810190808035906020019092919050505061052d565b005b3480156100dd57600080fd5b5061010a600480360360208110156100f457600080fd5b810190808035906020019092919050505061087b565b60405180848152602001838152602001828152602001935050505060405180910390f35b34801561013a57600080fd5b506101676004803603602081101561015157600080fd5b810190808035906020019092919050505061097d565b005b34801561017557600080fd5b506101ac6004803603604081101561018c57600080fd5b8101908080359060200190929190803590602001909291905050506109d1565b005b3480156101ba57600080fd5b50610211600480360360608110156101d157600080fd5b8101908080359060200190929190803573ffffffffffffffffffffffffffffffffffffffff16906020019092919080359060200190929190505050610a67565b005b34801561021f57600080fd5b506102e16004803603608081101561023657600080fd5b81019080803590602001909291908035906020019064010000000081111561025d57600080fd5b82018360208201111561026f57600080fd5b8035906020019184600183028401116401000000008311171561029157600080fd5b9091929391929390803573ffffffffffffffffffffffffffffffffffffffff169060200190929190803573ffffffffffffffffffffffffffffffffffffffff169060200190929190505050610b7f565b6040518082815260200191505060405180910390f35b34801561030357600080fd5b506103306004803603602081101561031a57600080fd5b8101908080359060200190929190505050610f0a565b6040518082815260200191505060405180910390f35b6103726004803603602081101561035c57600080fd5b8101908080359060200190929190505050610f22565b005b6103a06004803603602081101561038a57600080fd5b8101908080359060200190929190505050610fdb565b005b3480156103ae57600080fd5b506103db600480360360208110156103c557600080fd5b810190808035906020019092919050505061111c565b604051808b81526020018a61ffff1661ffff1681526020018961ffff1661ffff168152602001806020018873ffffffffffffffffffffffffffffffffffffffff1673ffffffffffffffffffffffffffffffffffffffff1681526020018773ffffffffffffffffffffffffffffffffffffffff1673ffffffffffffffffffffffffffffffffffffffff1681526020018673ffffffffffffffffffffffffffffffffffffffff1673ffffffffffffffffffffffffffffffffffffffff16815260200185151515158152602001848152602001838152602001828103825289818151815260200191508051906020019080838360005b838110156104e95780820151818401526020810190506104ce565b50505050905090810190601f1680156105165780820380516001836020036101000a031916815260200191505b509b50505050505050505050505060405180910390f35b3373ffffffffffffffffffffffffffffffffffffffff166000809054906101000a900473ffffffffffffffffffffffffffffffffffffffff1673ffffffffffffffffffffffffffffffffffffffff161461058657600080fd5b60008060006105948461087b565b8093508194508295505050506000600185815481106105af57fe5b906000526020600020906008020190508060040160009054906101000a900473ffffffffffffffffffffffffffffffffffffffff1673ffffffffffffffffffffffffffffffffffffffff166108fc859081150290604051600060405180830381858888f19350505050158015610629573d6000803e3d6000fd5b508060050160009054906101000a900473ffffffffffffffffffffffffffffffffffffffff1673ffffffffffffffffffffffffffffffffffffffff166108fc849081150290604051600060405180830381858888f19350505050158015610694573d6000803e3d6000fd5b508060030160009054906101000a900473ffffffffffffffffffffffffffffffffffffffff1673ffffffffffffffffffffffffffffffffffffffff166108fc839081150290604051600060405180830381858888f193505050501580156106ff573d6000803e3d6000fd5b5060008160050160146101000a81548160ff0219169083151502179055507f9c5def21f340f8e6b9a8566a7e6b3a2789a8733edcf6b28467db3bfb3942ab1e858260040160009054906101000a900473ffffffffffffffffffffffffffffffffffffffff16868460050160009054906101000a900473ffffffffffffffffffffffffffffffffffffffff16878660030160009054906101000a900473ffffffffffffffffffffffffffffffffffffffff1688604051808881526020018773ffffffffffffffffffffffffffffffffffffffff1673ffffffffffffffffffffffffffffffffffffffff1681526020018681526020018573ffffffffffffffffffffffffffffffffffffffff1673ffffffffffffffffffffffffffffffffffffffff1681526020018481526020018373ffffffffffffffffffffffffffffffffffffffff1673ffffffffffffffffffffffffffffffffffffffff16815260200182815260200197505050505050505060405180910390a15050505050565b6000806000806001858154811061088e57fe5b90600052602060002090600802019050600073ffffffffffffffffffffffffffffffffffffffff168160050160009054906101000a900473ffffffffffffffffffffffffffffffffffffffff1673ffffffffffffffffffffffffffffffffffffffff1614156108fc57600080fd5b60008090506000826007015490506000809050836007015491508360060154821061092957836006015491505b60248460010160009054906101000a900461ffff1661ffff161061095e576064828560060154036005028161095a57fe5b0490505b8082856006015403039250828282965096509650505050509193909250565b6001818154811061098a57fe5b9060005260206000209060080201600101600081819054906101000a900461ffff168092919060010191906101000a81548161ffff021916908361ffff1602179055505050565b3373ffffffffffffffffffffffffffffffffffffffff166000809054906101000a900473ffffffffffffffffffffffffffffffffffffffff1673ffffffffffffffffffffffffffffffffffffffff1614610a2a57600080fd5b8060018381548110610a3857fe5b906000526020600020906008020160010160026101000a81548161ffff021916908361ffff1602179055505050565b3373ffffffffffffffffffffffffffffffffffffffff166000809054906101000a900473ffffffffffffffffffffffffffffffffffffffff1673ffffffffffffffffffffffffffffffffffffffff1614610ac057600080fd5b600073ffffffffffffffffffffffffffffffffffffffff168273ffffffffffffffffffffffffffffffffffffffff161415610afa57600080fd5b8160018481548110610b0857fe5b906000526020600020906008020160050160006101000a81548173ffffffffffffffffffffffffffffffffffffffff021916908373ffffffffffffffffffffffffffffffffffffffff1602179055508060018481548110610b6557fe5b906000526020600020906008020160070181905550505050565b6000806001806040518061014001604052808a8152602001600061ffff1681526020016103e861ffff16815260200189898080601f016020809104026020016040519081016040528093929190818152602001838380828437600081840152601f19601f8201169050808301925050505050505081526020018773ffffffffffffffffffffffffffffffffffffffff1681526020018673ffffffffffffffffffffffffffffffffffffffff168152602001600073ffffffffffffffffffffffffffffffffffffffff168152602001600115158152602001600081526020016000815250908060018154018082558091505090600182039060005260206000209060080201600090919290919091506000820151816000015560208201518160010160006101000a81548161ffff021916908361ffff16021790555060408201518160010160026101000a81548161ffff021916908361ffff1602179055506060820151816002019080519060200190610cf992919061129e565b5060808201518160030160006101000a81548173ffffffffffffffffffffffffffffffffffffffff021916908373ffffffffffffffffffffffffffffffffffffffff16021790555060a08201518160040160006101000a81548173ffffffffffffffffffffffffffffffffffffffff021916908373ffffffffffffffffffffffffffffffffffffffff16021790555060c08201518160050160006101000a81548173ffffffffffffffffffffffffffffffffffffffff021916908373ffffffffffffffffffffffffffffffffffffffff16021790555060e08201518160050160146101000a81548160ff0219169083151502179055506101008201518160060155610120820151816007015550500390508060026000898152602001908152602001600020819055507fc33aa70e05e8747d84003b87e3b0f3844e4f8213f0ece6dc28e79d0f2eac1b9f81888888888860405180878152602001868152602001806020018473ffffffffffffffffffffffffffffffffffffffff1673ffffffffffffffffffffffffffffffffffffffff1681526020018373ffffffffffffffffffffffffffffffffffffffff1673ffffffffffffffffffffffffffffffffffffffff1681526020018281038252868682818152602001925080828437600081840152601f19601f82011690508083019250505097505050505050505060405180910390a18091505095945050505050565b60026020528060005260406000206000915090505481565b3460018281548110610f3057fe5b9060005260206000209060080201600601540160018281548110610f5057fe5b9060005260206000209060080201600601819055507f8d0bdc0bcc67110414e835f631225184f0ce60f9931eda82bcb29d3d6c698764813433604051808481526020018381526020018273ffffffffffffffffffffffffffffffffffffffff1673ffffffffffffffffffffffffffffffffffffffff168152602001935050505060405180910390a150565b600060018281548110610fea57fe5b9060005260206000209060080201905060006127108260010160029054906101000a900461ffff1661ffff1634028161101f57fe5b049050600081340390508260040160009054906101000a900473ffffffffffffffffffffffffffffffffffffffff1673ffffffffffffffffffffffffffffffffffffffff166108fc829081150290604051600060405180830381858888f19350505050158015611093573d6000803e3d6000fd5b508183600601540183600601819055507f8d0bdc0bcc67110414e835f631225184f0ce60f9931eda82bcb29d3d6c698764848333604051808481526020018381526020018273ffffffffffffffffffffffffffffffffffffffff1673ffffffffffffffffffffffffffffffffffffffff168152602001935050505060405180910390a150505050565b6001818154811061112957fe5b90600052602060002090600802016000915090508060000154908060010160009054906101000a900461ffff16908060010160029054906101000a900461ffff1690806002018054600181600116156101000203166002900480601f0160208091040260200160405190810160405280929190818152602001828054600181600116156101000203166002900480156112035780601f106111d857610100808354040283529160200191611203565b820191906000526020600020905b8154815290600101906020018083116111e657829003601f168201915b5050505050908060030160009054906101000a900473ffffffffffffffffffffffffffffffffffffffff16908060040160009054906101000a900473ffffffffffffffffffffffffffffffffffffffff16908060050160009054906101000a900473ffffffffffffffffffffffffffffffffffffffff16908060050160149054906101000a900460ff1690806006015490806007015490508a565b828054600181600116156101000203166002900490600052602060002090601f016020900481019282601f106112df57805160ff191683800117855561130d565b8280016001018555821561130d579182015b8281111561130c5782518255916020019190600101906112f1565b5b50905061131a919061131e565b5090565b61134091905b8082111561133c576000816000905550600101611324565b5090565b9056fea265627a7a72315820d57f939d4a68a2da4554625620aa8f4f2cde6f6cfde389f9343d9bd30458409d64736f6c63430005100032",
  "source": "pragma solidity >=0.5.0 <0.6.0;\n\ncontract Main {\n  address owner;\n  \n  constructor() public {\n    owner = msg.sender;\n  }\n\n  struct Panel {\n    uint registrationNumber;\n    uint16 monthsOfLife;\n    uint16 pp10kForPanel; //ratio for total income to panel in parts per 10k, for instance 10% = 1000pp10k\n    string manufacturer;\n    address payable manufacturerAddress;\n    address payable ownerAddress;\n    address payable recyclerAddress;\n    bool isActive;\n    uint balance;\n    uint recyclingCost;\n  }\n\n  Panel[] public panels;\n  mapping (uint => uint) public registrationToId;\n\n  /* modifier to restrict function calls to only active panels */\n  modifier isActive(uint _panelId) {\n    require(panels[_panelId].isActive);\n    _;\n  }\n\n  /* Modifier requiring that the sender address is trusted third party */\n  modifier trusted() {\n    /* TODO\n    check if the caller of the function is trusted third party,\n    or oracle, maybe in form of a list of addresses checked against\n    msg.sender */\n    require(owner==msg.sender);\n    _;\n  }\n\n  event PanelRegistered(uint panelId, uint registrationNumber, string manufacturer, address manufacturerAddress, address ownerAddress);\n  /* Function to register a panel, this marks the beginning of the lifetime of a panel */\n  function registerPanel(uint _registrationNumber, string calldata _manufacturer, address payable _manufacturerAddress, address payable _ownerAddress) external returns (uint) {\n    uint panelId = panels.push(Panel(_registrationNumber, 0, uint16(1000), _manufacturer, _manufacturerAddress, _ownerAddress, address(uint160(0)), true, 0, 0)) - 1;\n    registrationToId[_registrationNumber] = panelId;\n    emit PanelRegistered(panelId, _registrationNumber, _manufacturer, _manufacturerAddress, _ownerAddress);\n    return panelId;\n  }\n\n  /* Function to say that a panel has been operating for 1 month longer */\n  function _increaseLifetime(uint _panelId) public {\n    panels[_panelId].monthsOfLife++;\n  }\n\n  event DepositMade(uint panelId, uint valueReceived, address payerAddress);\n  /* Funtion to deposit ether to a panel */\n  function deposit(uint _panelId) external payable {\n    panels[_panelId].balance = panels[_panelId].balance + msg.value;\n    emit DepositMade(_panelId, msg.value, msg.sender);\n  }\n\n  function pay(uint _panelId) external payable {\n    Panel storage panel = panels[_panelId];\n    uint valueForPanel = msg.value*panel.pp10kForPanel/10000;\n    uint valueForOwner = msg.value - valueForPanel;\n    panel.ownerAddress.transfer(valueForOwner);\n    panel.balance = panel.balance + valueForPanel;\n    emit DepositMade(_panelId, valueForPanel, msg.sender);\n  }\n\n  function updatePanelShare(uint _panelId, uint _pp10kForPanel) external trusted() {\n    panels[_panelId].pp10kForPanel = uint16(_pp10kForPanel);\n  }\n\n  /* Function to set the address and the cost of the recycler */\n  function setRecycler(uint _panelId, address payable _recyclerAddress, uint _recyclingCost) external trusted() {\n    require(_recyclerAddress != address(0));\n    panels[_panelId].recyclerAddress = _recyclerAddress;\n    panels[_panelId].recyclingCost = _recyclingCost; //Assume that recyclingCost already includes some profit margin for recycling company\n  }\n\n  /* Helper function calculating the shares for the involced parties based on balance etc... */\n  function calculateShares(uint _panelId) public view returns (uint, uint, uint) {\n    Panel storage panel = panels[_panelId];\n    require(panel.recyclerAddress != address(0));\n    uint ownerShare = 0;\n    uint recyclerShare = panel.recyclingCost;\n    uint manufacturerShare = 0;\n    // Recycler gets his cost, if balances not sufficcient then just all the balances\n    recyclerShare = panel.recyclingCost;\n    if (recyclerShare >= panel.balance) {\n        recyclerShare = panel.balance;\n    }\n    // If the panel lasted longer than 3 years, the manufacturer gets 5% of the rest\n    if (panel.monthsOfLife >= 3*12) {\n        manufacturerShare = 5 * (panel.balance - recyclerShare) / 100;\n    }\n    // finally user gets the rest\n    ownerShare = panel.balance - recyclerShare - manufacturerShare;\n    return(ownerShare, recyclerShare, manufacturerShare);\n  }\n\n  event PanelClosed(uint panelId, address ownerAddress, uint ownerShare, address recyclerAddress, uint recyclerShare, address manufacturerAddress, uint manufacturerShare);\n  /* This function marks the end of the lifetime of the PV panel,\n  The shares for the involced parties are calculated and paid. */\n  function close(uint _panelId) external trusted() {\n    uint ownerShare;\n    uint recyclerShare;\n    uint manufacturerShare;\n    (ownerShare, recyclerShare, manufacturerShare) = calculateShares(_panelId);\n    Panel storage panel = panels[_panelId];\n    panel.ownerAddress.transfer(ownerShare);\n    panel.recyclerAddress.transfer(recyclerShare);\n    panel.manufacturerAddress.transfer(manufacturerShare);\n    panel.isActive = false;\n    emit PanelClosed(_panelId, panel.ownerAddress, ownerShare, panel.recyclerAddress, recyclerShare, panel.manufacturerAddress, manufacturerShare);\n  }\n}",
  "sourcePath": "/Users/una/Documents/GitHub/susDAO-SolarWorks/contracts/main.sol",
  "compiler": {
    "name": "solc",
    "version": "0.5.16+commit.9c3226ce.Emscripten.clang"
  },
  "schemaVersion": "3.2.5",
  "updatedAt": "2020-11-30T07:48:17.130Z",
  "networkType": "ethereum",
  "devdoc": {
    "methods": {}
  },
  "userdoc": {
    "methods": {}
  }
}