{
  "contractName": "Main",
  "abi": [
    {
      "anonymous": false,
      "inputs": [
        {
          "indexed": false,
          "internalType": "uint256",
          "name": "panelId",
          "type": "uint256"
        },
        {
          "indexed": false,
          "internalType": "uint256",
          "name": "valueReceived",
          "type": "uint256"
        },
        {
          "indexed": false,
          "internalType": "address",
          "name": "payerAddress",
          "type": "address"
        }
      ],
      "name": "DepositMade",
      "type": "event"
    },
    {
      "anonymous": false,
      "inputs": [
        {
          "indexed": false,
          "internalType": "uint256",
          "name": "panelId",
          "type": "uint256"
        },
        {
          "indexed": false,
          "internalType": "address",
          "name": "ownerAddress",
          "type": "address"
        },
        {
          "indexed": false,
          "internalType": "uint256",
          "name": "ownerShare",
          "type": "uint256"
        },
        {
          "indexed": false,
          "internalType": "address",
          "name": "recyclerAddress",
          "type": "address"
        },
        {
          "indexed": false,
          "internalType": "uint256",
          "name": "recyclerShare",
          "type": "uint256"
        },
        {
          "indexed": false,
          "internalType": "address",
          "name": "manufacturerAddress",
          "type": "address"
        },
        {
          "indexed": false,
          "internalType": "uint256",
          "name": "manufacturerShare",
          "type": "uint256"
        }
      ],
      "name": "PanelClosed",
      "type": "event"
    },
    {
      "anonymous": false,
      "inputs": [
        {
          "indexed": false,
          "internalType": "uint256",
          "name": "panelId",
          "type": "uint256"
        },
        {
          "indexed": false,
          "internalType": "uint256",
          "name": "registrationNumber",
          "type": "uint256"
        },
        {
          "indexed": false,
          "internalType": "string",
          "name": "manufacturer",
          "type": "string"
        },
        {
          "indexed": false,
          "internalType": "address",
          "name": "manufacturerAddress",
          "type": "address"
        },
        {
          "indexed": false,
          "internalType": "address",
          "name": "ownerAddress",
          "type": "address"
        }
      ],
      "name": "PanelRegistered",
      "type": "event"
    },
    {
      "constant": true,
      "inputs": [
        {
          "internalType": "uint256",
          "name": "",
          "type": "uint256"
        }
      ],
      "name": "panels",
      "outputs": [
        {
          "internalType": "uint256",
          "name": "registrationNumber",
          "type": "uint256"
        },
        {
          "internalType": "uint16",
          "name": "monthsOfLife",
          "type": "uint16"
        },
        {
          "internalType": "string",
          "name": "manufacturer",
          "type": "string"
        },
        {
          "internalType": "address payable",
          "name": "manufacturerAddress",
          "type": "address"
        },
        {
          "internalType": "address payable",
          "name": "ownerAddress",
          "type": "address"
        },
        {
          "internalType": "address payable",
          "name": "recyclerAddress",
          "type": "address"
        },
        {
          "internalType": "bool",
          "name": "isActive",
          "type": "bool"
        },
        {
          "internalType": "uint256",
          "name": "balance",
          "type": "uint256"
        },
        {
          "internalType": "uint256",
          "name": "recyclingCost",
          "type": "uint256"
        }
      ],
      "payable": false,
      "stateMutability": "view",
      "type": "function"
    },
    {
      "constant": false,
      "inputs": [
        {
          "internalType": "uint256",
          "name": "_registrationNumber",
          "type": "uint256"
        },
        {
          "internalType": "string",
          "name": "_manufacturer",
          "type": "string"
        },
        {
          "internalType": "address payable",
          "name": "_manufacturerAddress",
          "type": "address"
        },
        {
          "internalType": "address payable",
          "name": "_ownerAddress",
          "type": "address"
        }
      ],
      "name": "registerPanel",
      "outputs": [
        {
          "internalType": "uint256",
          "name": "",
          "type": "uint256"
        }
      ],
      "payable": false,
      "stateMutability": "nonpayable",
      "type": "function"
    },
    {
      "constant": false,
      "inputs": [
        {
          "internalType": "uint256",
          "name": "_panelId",
          "type": "uint256"
        }
      ],
      "name": "_increaseLifetime",
      "outputs": [],
      "payable": false,
      "stateMutability": "nonpayable",
      "type": "function"
    },
    {
      "constant": false,
      "inputs": [
        {
          "internalType": "uint256",
          "name": "_panelId",
          "type": "uint256"
        }
      ],
      "name": "deposit",
      "outputs": [],
      "payable": true,
      "stateMutability": "payable",
      "type": "function"
    },
    {
      "constant": false,
      "inputs": [
        {
          "internalType": "uint256",
          "name": "_panelId",
          "type": "uint256"
        },
        {
          "internalType": "address payable",
          "name": "_recyclerAddress",
          "type": "address"
        },
        {
          "internalType": "uint256",
          "name": "_recyclingCost",
          "type": "uint256"
        }
      ],
      "name": "setRecycler",
      "outputs": [],
      "payable": false,
      "stateMutability": "nonpayable",
      "type": "function"
    },
    {
      "constant": true,
      "inputs": [
        {
          "internalType": "uint256",
          "name": "_panelId",
          "type": "uint256"
        }
      ],
      "name": "calculateShares",
      "outputs": [
        {
          "internalType": "uint256",
          "name": "",
          "type": "uint256"
        },
        {
          "internalType": "uint256",
          "name": "",
          "type": "uint256"
        },
        {
          "internalType": "uint256",
          "name": "",
          "type": "uint256"
        }
      ],
      "payable": false,
      "stateMutability": "view",
      "type": "function"
    },
    {
      "constant": false,
      "inputs": [
        {
          "internalType": "uint256",
          "name": "_panelId",
          "type": "uint256"
        }
      ],
      "name": "close",
      "outputs": [],
      "payable": false,
      "stateMutability": "nonpayable",
      "type": "function"
    }
  ],
  "bytecode": "0x608060405234801561001057600080fd5b50610f9f806100206000396000f3fe6080604052600436106100705760003560e01c80635bf11d8d1161004e5780635bf11d8d14610148578063612d659d146101ad578063b6b55f2514610291578063f40e4f6f146102bf57610070565b80630aebeb4e146100755780633ec16194146100b057806346a7e4dd1461010d575b600080fd5b34801561008157600080fd5b506100ae6004803603602081101561009857600080fd5b810190808035906020019092919050505061043b565b005b3480156100bc57600080fd5b506100e9600480360360208110156100d357600080fd5b810190808035906020019092919050505061073a565b60405180848152602001838152602001828152602001935050505060405180910390f35b34801561011957600080fd5b506101466004803603602081101561013057600080fd5b810190808035906020019092919050505061083c565b005b34801561015457600080fd5b506101ab6004803603606081101561016b57600080fd5b8101908080359060200190929190803573ffffffffffffffffffffffffffffffffffffffff16906020019092919080359060200190929190505050610890565b005b3480156101b957600080fd5b5061027b600480360360808110156101d057600080fd5b8101908080359060200190929190803590602001906401000000008111156101f757600080fd5b82018360208201111561020957600080fd5b8035906020019184600183028401116401000000008311171561022b57600080fd5b9091929391929390803573ffffffffffffffffffffffffffffffffffffffff169060200190929190803573ffffffffffffffffffffffffffffffffffffffff16906020019092919050505061095a565b6040518082815260200191505060405180910390f35b6102bd600480360360208110156102a757600080fd5b8101908080359060200190929190505050610c9e565b005b3480156102cb57600080fd5b506102f8600480360360208110156102e257600080fd5b8101908080359060200190929190505050610d57565b604051808a81526020018961ffff1661ffff168152602001806020018873ffffffffffffffffffffffffffffffffffffffff1673ffffffffffffffffffffffffffffffffffffffff1681526020018773ffffffffffffffffffffffffffffffffffffffff1673ffffffffffffffffffffffffffffffffffffffff1681526020018673ffffffffffffffffffffffffffffffffffffffff1673ffffffffffffffffffffffffffffffffffffffff16815260200185151515158152602001848152602001838152602001828103825289818151815260200191508051906020019080838360005b838110156103f85780820151818401526020810190506103dd565b50505050905090810190601f1680156104255780820380516001836020036101000a031916815260200191505b509a505050505050505050505060405180910390f35b600161044657600080fd5b60008060006104548461073a565b809350819450829550505050600080858154811061046e57fe5b906000526020600020906008020190508060040160009054906101000a900473ffffffffffffffffffffffffffffffffffffffff1673ffffffffffffffffffffffffffffffffffffffff166108fc859081150290604051600060405180830381858888f193505050501580156104e8573d6000803e3d6000fd5b508060050160009054906101000a900473ffffffffffffffffffffffffffffffffffffffff1673ffffffffffffffffffffffffffffffffffffffff166108fc849081150290604051600060405180830381858888f19350505050158015610553573d6000803e3d6000fd5b508060030160009054906101000a900473ffffffffffffffffffffffffffffffffffffffff1673ffffffffffffffffffffffffffffffffffffffff166108fc839081150290604051600060405180830381858888f193505050501580156105be573d6000803e3d6000fd5b5060008160050160146101000a81548160ff0219169083151502179055507f9c5def21f340f8e6b9a8566a7e6b3a2789a8733edcf6b28467db3bfb3942ab1e858260040160009054906101000a900473ffffffffffffffffffffffffffffffffffffffff16868460050160009054906101000a900473ffffffffffffffffffffffffffffffffffffffff16878660030160009054906101000a900473ffffffffffffffffffffffffffffffffffffffff1688604051808881526020018773ffffffffffffffffffffffffffffffffffffffff1673ffffffffffffffffffffffffffffffffffffffff1681526020018681526020018573ffffffffffffffffffffffffffffffffffffffff1673ffffffffffffffffffffffffffffffffffffffff1681526020018481526020018373ffffffffffffffffffffffffffffffffffffffff1673ffffffffffffffffffffffffffffffffffffffff16815260200182815260200197505050505050505060405180910390a15050505050565b6000806000806000858154811061074d57fe5b90600052602060002090600802019050600073ffffffffffffffffffffffffffffffffffffffff168160050160009054906101000a900473ffffffffffffffffffffffffffffffffffffffff1673ffffffffffffffffffffffffffffffffffffffff1614156107bb57600080fd5b6000809050600082600701549050600080905083600701549150836006015482106107e857836006015491505b60248460010160009054906101000a900461ffff1661ffff161061081d576064828560060154036005028161081957fe5b0490505b8082856006015403039250828282965096509650505050509193909250565b6000818154811061084957fe5b9060005260206000209060080201600101600081819054906101000a900461ffff168092919060010191906101000a81548161ffff021916908361ffff1602179055505050565b600161089b57600080fd5b600073ffffffffffffffffffffffffffffffffffffffff168273ffffffffffffffffffffffffffffffffffffffff1614156108d557600080fd5b81600084815481106108e357fe5b906000526020600020906008020160050160006101000a81548173ffffffffffffffffffffffffffffffffffffffff021916908373ffffffffffffffffffffffffffffffffffffffff160217905550806000848154811061094057fe5b906000526020600020906008020160070181905550505050565b600080600160006040518061012001604052808a8152602001600061ffff16815260200189898080601f016020809104026020016040519081016040528093929190818152602001838380828437600081840152601f19601f8201169050808301925050505050505081526020018773ffffffffffffffffffffffffffffffffffffffff1681526020018673ffffffffffffffffffffffffffffffffffffffff168152602001600073ffffffffffffffffffffffffffffffffffffffff168152602001600115158152602001600081526020016000815250908060018154018082558091505090600182039060005260206000209060080201600090919290919091506000820151816000015560208201518160010160006101000a81548161ffff021916908361ffff1602179055506040820151816002019080519060200190610aa6929190610ec5565b5060608201518160030160006101000a81548173ffffffffffffffffffffffffffffffffffffffff021916908373ffffffffffffffffffffffffffffffffffffffff16021790555060808201518160040160006101000a81548173ffffffffffffffffffffffffffffffffffffffff021916908373ffffffffffffffffffffffffffffffffffffffff16021790555060a08201518160050160006101000a81548173ffffffffffffffffffffffffffffffffffffffff021916908373ffffffffffffffffffffffffffffffffffffffff16021790555060c08201518160050160146101000a81548160ff02191690831515021790555060e08201518160060155610100820151816007015550500390507fc33aa70e05e8747d84003b87e3b0f3844e4f8213f0ece6dc28e79d0f2eac1b9f81888888888860405180878152602001868152602001806020018473ffffffffffffffffffffffffffffffffffffffff1673ffffffffffffffffffffffffffffffffffffffff1681526020018373ffffffffffffffffffffffffffffffffffffffff1673ffffffffffffffffffffffffffffffffffffffff1681526020018281038252868682818152602001925080828437600081840152601f19601f82011690508083019250505097505050505050505060405180910390a18091505095945050505050565b3460008281548110610cac57fe5b9060005260206000209060080201600601540160008281548110610ccc57fe5b9060005260206000209060080201600601819055507f8d0bdc0bcc67110414e835f631225184f0ce60f9931eda82bcb29d3d6c698764813433604051808481526020018381526020018273ffffffffffffffffffffffffffffffffffffffff1673ffffffffffffffffffffffffffffffffffffffff168152602001935050505060405180910390a150565b60008181548110610d6457fe5b90600052602060002090600802016000915090508060000154908060010160009054906101000a900461ffff1690806002018054600181600116156101000203166002900480601f016020809104026020016040519081016040528092919081815260200182805460018160011615610100020316600290048015610e2a5780601f10610dff57610100808354040283529160200191610e2a565b820191906000526020600020905b815481529060010190602001808311610e0d57829003601f168201915b5050505050908060030160009054906101000a900473ffffffffffffffffffffffffffffffffffffffff16908060040160009054906101000a900473ffffffffffffffffffffffffffffffffffffffff16908060050160009054906101000a900473ffffffffffffffffffffffffffffffffffffffff16908060050160149054906101000a900460ff16908060060154908060070154905089565b828054600181600116156101000203166002900490600052602060002090601f016020900481019282601f10610f0657805160ff1916838001178555610f34565b82800160010185558215610f34579182015b82811115610f33578251825591602001919060010190610f18565b5b509050610f419190610f45565b5090565b610f6791905b80821115610f63576000816000905550600101610f4b565b5090565b9056fea265627a7a72315820db9f60346ad36ec32aee323f3258317d55fa602143d4608b165c660ed30436ab64736f6c63430005100032",
  "source": "pragma solidity >=0.5.0 <0.6.0;\n\ncontract Main {\n  \n  struct Panel {\n    uint registrationNumber;\n    uint16 monthsOfLife;\n    string manufacturer;\n    address payable manufacturerAddress;\n    address payable ownerAddress;\n    address payable recyclerAddress;\n    bool isActive;\n    uint balance;\n    uint recyclingCost;\n  }\n\n  Panel[] public panels;\n\n  /* modifier to restrict function calls to only active panels */\n  modifier isActive(uint _panelId) {\n    require(panels[_panelId].isActive);\n    _;\n  }\n\n  /* Modifier requiring that the sender address is trusted third party */\n  modifier trusted() {\n    /* TODO\n    check if the caller of the function is trusted third party,\n    or oracle, maybe in form of a list of addresses checked against\n    msg.sender */\n    require(true);\n    _;\n  }\n\n  event PanelRegistered(uint panelId, uint registrationNumber, string manufacturer, address manufacturerAddress, address ownerAddress);\n  /* Function to register a panel, this marks the beginning of the lifetime of a panel */\n  function registerPanel(uint _registrationNumber, string calldata _manufacturer, address payable _manufacturerAddress, address payable _ownerAddress) external returns (uint) {\n    uint panelId = panels.push(Panel(_registrationNumber, 0, _manufacturer, _manufacturerAddress, _ownerAddress, address(uint160(0)), true, 0, 0)) - 1;\n    emit PanelRegistered(panelId, _registrationNumber, _manufacturer, _manufacturerAddress, _ownerAddress);\n    return panelId;\n  }\n\n  /* Function to say that a panel has been operating for 1 month longer */\n  function _increaseLifetime(uint _panelId) public {\n    panels[_panelId].monthsOfLife++;\n  }\n\n  event DepositMade(uint panelId, uint valueReceived, address payerAddress);\n  /* Funtion to deposit ether to a panel */\n  function deposit(uint _panelId) external payable {\n    panels[_panelId].balance = panels[_panelId].balance + msg.value;\n    emit DepositMade(_panelId, msg.value, msg.sender);\n  }\n\n  /* Function to set the address and the cost of the recycler */\n  function setRecycler(uint _panelId, address payable _recyclerAddress, uint _recyclingCost) external trusted() {\n    require(_recyclerAddress != address(0));\n    panels[_panelId].recyclerAddress = _recyclerAddress;\n    panels[_panelId].recyclingCost = _recyclingCost; //Assume that recyclingCost already includes some profit margin for recycling company\n  }\n\n  /* Helper function calculating the shares for the involced parties based on balance etc... */\n  function calculateShares(uint _panelId) public view returns (uint, uint, uint) {\n    Panel storage panel = panels[_panelId];\n    require(panel.recyclerAddress != address(0));\n    uint ownerShare = 0;\n    uint recyclerShare = panel.recyclingCost;\n    uint manufacturerShare = 0;\n    // Recycler gets his cost, if balances not sufficcient then just all the balances\n    recyclerShare = panel.recyclingCost;\n    if (recyclerShare >= panel.balance) {\n        recyclerShare = panel.balance;\n    }\n    // If the panel lasted longer than 3 years, the manufacturer gets 5% of the rest\n    if (panel.monthsOfLife >= 3*12) {\n        manufacturerShare = 5 * (panel.balance - recyclerShare) / 100;\n    }\n    // finally user gets the rest\n    ownerShare = panel.balance - recyclerShare - manufacturerShare;\n    return(ownerShare, recyclerShare, manufacturerShare);\n  }\n\n  event PanelClosed(uint panelId, address ownerAddress, uint ownerShare, address recyclerAddress, uint recyclerShare, address manufacturerAddress, uint manufacturerShare);\n  /* This function marks the end of the lifetime of the PV panel,\n  The shares for the involced parties are calculated and paid. */\n  function close(uint _panelId) external trusted() {\n    uint ownerShare;\n    uint recyclerShare;\n    uint manufacturerShare;\n    (ownerShare, recyclerShare, manufacturerShare) = calculateShares(_panelId);\n    Panel storage panel = panels[_panelId];\n    panel.ownerAddress.transfer(ownerShare);\n    panel.recyclerAddress.transfer(recyclerShare);\n    panel.manufacturerAddress.transfer(manufacturerShare);\n    panel.isActive = false;\n    emit PanelClosed(_panelId, panel.ownerAddress, ownerShare, panel.recyclerAddress, recyclerShare, panel.manufacturerAddress, manufacturerShare);\n  }\n}\n",
  "sourcePath": "/Users/una/Documents/GitHub/susDAO-SolarWorks/contracts/main.sol",
  "compiler": {
    "name": "solc",
    "version": "0.5.16+commit.9c3226ce.Emscripten.clang"
  },
  "schemaVersion": "3.2.5",
  "updatedAt": "2020-11-17T13:13:06.520Z",
  "networkType": "ethereum",
  "devdoc": {
    "methods": {}
  },
  "userdoc": {
    "methods": {}
  }
}